{
  "_format": "hh-sol-artifact-1",
  "contractName": "CryptoDevsDAO",
  "sourceName": "contracts/CryptoDevsDAO.sol",
  "address": "0x66eCC058A2824C454dA59f4d495d5Db6c22d684F",
  "abi": [
    {
      "inputs": [
        {
          "internalType": "address",
          "name": "_nftMarketplace",
          "type": "address"
        },
        {
          "internalType": "address",
          "name": "_cryptoDevsNFT",
          "type": "address"
        }
      ],
      "stateMutability": "payable",
      "type": "constructor"
    },
    {
      "anonymous": false,
      "inputs": [
        {
          "indexed": true,
          "internalType": "address",
          "name": "previousOwner",
          "type": "address"
        },
        {
          "indexed": true,
          "internalType": "address",
          "name": "newOwner",
          "type": "address"
        }
      ],
      "name": "OwnershipTransferred",
      "type": "event"
    },
    {
      "stateMutability": "payable",
      "type": "fallback"
    },
    {
      "inputs": [
        {
          "internalType": "uint256",
          "name": "_nftTokenId",
          "type": "uint256"
        }
      ],
      "name": "createProposal",
      "outputs": [
        {
          "internalType": "uint256",
          "name": "",
          "type": "uint256"
        }
      ],
      "stateMutability": "nonpayable",
      "type": "function"
    },
    {
      "inputs": [
        {
          "internalType": "uint256",
          "name": "proposalIndex",
          "type": "uint256"
        }
      ],
      "name": "executeProposal",
      "outputs": [],
      "stateMutability": "nonpayable",
      "type": "function"
    },
    {
      "inputs": [],
      "name": "numProposals",
      "outputs": [
        {
          "internalType": "uint256",
          "name": "",
          "type": "uint256"
        }
      ],
      "stateMutability": "view",
      "type": "function"
    },
    {
      "inputs": [],
      "name": "owner",
      "outputs": [
        {
          "internalType": "address",
          "name": "",
          "type": "address"
        }
      ],
      "stateMutability": "view",
      "type": "function"
    },
    {
      "inputs": [
        {
          "internalType": "uint256",
          "name": "",
          "type": "uint256"
        }
      ],
      "name": "proposals",
      "outputs": [
        {
          "internalType": "uint256",
          "name": "nftTokenId",
          "type": "uint256"
        },
        {
          "internalType": "uint256",
          "name": "deadline",
          "type": "uint256"
        },
        {
          "internalType": "uint256",
          "name": "yayVotes",
          "type": "uint256"
        },
        {
          "internalType": "uint256",
          "name": "nayVotes",
          "type": "uint256"
        },
        {
          "internalType": "bool",
          "name": "executed",
          "type": "bool"
        }
      ],
      "stateMutability": "view",
      "type": "function"
    },
    {
      "inputs": [],
      "name": "renounceOwnership",
      "outputs": [],
      "stateMutability": "nonpayable",
      "type": "function"
    },
    {
      "inputs": [
        {
          "internalType": "address",
          "name": "newOwner",
          "type": "address"
        }
      ],
      "name": "transferOwnership",
      "outputs": [],
      "stateMutability": "nonpayable",
      "type": "function"
    },
    {
      "inputs": [
        {
          "internalType": "uint256",
          "name": "proposalIndex",
          "type": "uint256"
        },
        {
          "internalType": "enum CryptoDevsDAO.Vote",
          "name": "vote",
          "type": "uint8"
        }
      ],
      "name": "voteOnProposal",
      "outputs": [],
      "stateMutability": "nonpayable",
      "type": "function"
    },
    {
      "inputs": [],
      "name": "withdrawEther",
      "outputs": [],
      "stateMutability": "nonpayable",
      "type": "function"
    },
    {
      "stateMutability": "payable",
      "type": "receive"
    }
  ],
  "bytecode": "0x6080604052604051620019ed380380620019ed8339818101604052810190620000299190620001b6565b620000496200003d620000d360201b60201c565b620000db60201b60201c565b81600360006101000a81548173ffffffffffffffffffffffffffffffffffffffff021916908373ffffffffffffffffffffffffffffffffffffffff16021790555080600460006101000a81548173ffffffffffffffffffffffffffffffffffffffff021916908373ffffffffffffffffffffffffffffffffffffffff160217905550505062000245565b600033905090565b60008060009054906101000a900473ffffffffffffffffffffffffffffffffffffffff169050816000806101000a81548173ffffffffffffffffffffffffffffffffffffffff021916908373ffffffffffffffffffffffffffffffffffffffff1602179055508173ffffffffffffffffffffffffffffffffffffffff168173ffffffffffffffffffffffffffffffffffffffff167f8be0079c531659141344cd1fd0a4f28419497f9722a3daafe3b4186f6b6457e060405160405180910390a35050565b600081519050620001b0816200022b565b92915050565b60008060408385031215620001ca57600080fd5b6000620001da858286016200019f565b9250506020620001ed858286016200019f565b9150509250929050565b600062000204826200020b565b9050919050565b600073ffffffffffffffffffffffffffffffffffffffff82169050919050565b6200023681620001f7565b81146200024257600080fd5b50565b61179880620002556000396000f3fe60806040526004361061008a5760003560e01c8063715018a611610059578063715018a6146101655780637362377b1461017c5780638da5cb5b14610193578063efafb22e146101be578063f2fde38b146101e757610091565b8063013cf08b146100935780630d61b519146100d4578063400e3949146100fd5780635a43dc001461012857610091565b3661009157005b005b34801561009f57600080fd5b506100ba60048036038101906100b59190611053565b610210565b6040516100cb9594939291906113c8565b60405180910390f35b3480156100e057600080fd5b506100fb60048036038101906100f69190611053565b610253565b005b34801561010957600080fd5b506101126105c8565b60405161011f91906113ad565b60405180910390f35b34801561013457600080fd5b5061014f600480360381019061014a9190611053565b6105ce565b60405161015c91906113ad565b60405180910390f35b34801561017157600080fd5b5061017a61080d565b005b34801561018857600080fd5b50610191610895565b005b34801561019f57600080fd5b506101a8610961565b6040516101b59190611249565b60405180910390f35b3480156101ca57600080fd5b506101e560048036038101906101e091906110a5565b61098a565b005b3480156101f357600080fd5b5061020e60048036038101906102099190611001565b610dd4565b005b60016020528060005260406000206000915090508060000154908060010154908060020154908060030154908060040160009054906101000a900460ff16905085565b6000600460009054906101000a900473ffffffffffffffffffffffffffffffffffffffff1673ffffffffffffffffffffffffffffffffffffffff166370a08231336040518263ffffffff1660e01b81526004016102b09190611249565b60206040518083038186803b1580156102c857600080fd5b505afa1580156102dc573d6000803e3d6000fd5b505050506040513d601f19601f82011682018060405250810190610300919061107c565b11610340576040517f08c379a00000000000000000000000000000000000000000000000000000000081526004016103379061134d565b60405180910390fd5b80426001600083815260200190815260200160002060010154111561039a576040517f08c379a00000000000000000000000000000000000000000000000000000000081526004016103919061128d565b60405180910390fd5b600015156001600083815260200190815260200160002060040160009054906101000a900460ff16151514610404576040517f08c379a00000000000000000000000000000000000000000000000000000000081526004016103fb906112cd565b60405180910390fd5b60006001600084815260200190815260200160002090508060030154816002015411156105a6576000600360009054906101000a900473ffffffffffffffffffffffffffffffffffffffff1673ffffffffffffffffffffffffffffffffffffffff166398d5fdca6040518163ffffffff1660e01b815260040160206040518083038186803b15801561049557600080fd5b505afa1580156104a9573d6000803e3d6000fd5b505050506040513d601f19601f820116820180604052508101906104cd919061107c565b905080471015610512576040517f08c379a00000000000000000000000000000000000000000000000000000000081526004016105099061138d565b60405180910390fd5b600360009054906101000a900473ffffffffffffffffffffffffffffffffffffffff1673ffffffffffffffffffffffffffffffffffffffff1663efef39a18284600001546040518363ffffffff1660e01b815260040161057291906113ad565b6000604051808303818588803b15801561058b57600080fd5b505af115801561059f573d6000803e3d6000fd5b5050505050505b60018160040160006101000a81548160ff021916908315150217905550505050565b60025481565b600080600460009054906101000a900473ffffffffffffffffffffffffffffffffffffffff1673ffffffffffffffffffffffffffffffffffffffff166370a08231336040518263ffffffff1660e01b815260040161062c9190611249565b60206040518083038186803b15801561064457600080fd5b505afa158015610658573d6000803e3d6000fd5b505050506040513d601f19601f8201168201806040525081019061067c919061107c565b116106bc576040517f08c379a00000000000000000000000000000000000000000000000000000000081526004016106b39061134d565b60405180910390fd5b600360009054906101000a900473ffffffffffffffffffffffffffffffffffffffff1673ffffffffffffffffffffffffffffffffffffffff166396e494e8836040518263ffffffff1660e01b815260040161071791906113ad565b60206040518083038186803b15801561072f57600080fd5b505afa158015610743573d6000803e3d6000fd5b505050506040513d601f19601f82011682018060405250810190610767919061102a565b6107a6576040517f08c379a000000000000000000000000000000000000000000000000000000000815260040161079d9061130d565b60405180910390fd5b6000600160006002548152602001908152602001600020905082816000018190555061012c426107d6919061142c565b8160010181905550600260008154809291906107f1906114fe565b919050555060016002546108059190611482565b915050919050565b610815610ecc565b73ffffffffffffffffffffffffffffffffffffffff16610833610961565b73ffffffffffffffffffffffffffffffffffffffff1614610889576040517f08c379a00000000000000000000000000000000000000000000000000000000081526004016108809061136d565b60405180910390fd5b6108936000610ed4565b565b61089d610ecc565b73ffffffffffffffffffffffffffffffffffffffff166108bb610961565b73ffffffffffffffffffffffffffffffffffffffff1614610911576040517f08c379a00000000000000000000000000000000000000000000000000000000081526004016109089061136d565b60405180910390fd5b610919610961565b73ffffffffffffffffffffffffffffffffffffffff166108fc479081150290604051600060405180830381858888f1935050505015801561095e573d6000803e3d6000fd5b50565b60008060009054906101000a900473ffffffffffffffffffffffffffffffffffffffff16905090565b6000600460009054906101000a900473ffffffffffffffffffffffffffffffffffffffff1673ffffffffffffffffffffffffffffffffffffffff166370a08231336040518263ffffffff1660e01b81526004016109e79190611249565b60206040518083038186803b1580156109ff57600080fd5b505afa158015610a13573d6000803e3d6000fd5b505050506040513d601f19601f82011682018060405250810190610a37919061107c565b11610a77576040517f08c379a0000000000000000000000000000000000000000000000000000000008152600401610a6e9061134d565b60405180910390fd5b8142600160008381526020019081526020016000206001015411610ad0576040517f08c379a0000000000000000000000000000000000000000000000000000000008152600401610ac7906112ed565b60405180910390fd5b60006001600085815260200190815260200160002090506000600460009054906101000a900473ffffffffffffffffffffffffffffffffffffffff1673ffffffffffffffffffffffffffffffffffffffff166370a08231336040518263ffffffff1660e01b8152600401610b449190611249565b60206040518083038186803b158015610b5c57600080fd5b505afa158015610b70573d6000803e3d6000fd5b505050506040513d601f19601f82011682018060405250810190610b94919061107c565b90506000805b82811015610cd3576000600460009054906101000a900473ffffffffffffffffffffffffffffffffffffffff1673ffffffffffffffffffffffffffffffffffffffff16632f745c5933846040518363ffffffff1660e01b8152600401610c01929190611264565b60206040518083038186803b158015610c1957600080fd5b505afa158015610c2d573d6000803e3d6000fd5b505050506040513d601f19601f82011682018060405250810190610c51919061107c565b90506000151585600501600083815260200190815260200160002060009054906101000a900460ff1615151415610cbf578280610c8d906114fe565b935050600185600501600083815260200190815260200160002060006101000a81548160ff0219169083151502179055505b508080610ccb906114fe565b915050610b9a565b5060008111610d17576040517f08c379a0000000000000000000000000000000000000000000000000000000008152600401610d0e9061132d565b60405180910390fd5b60006001811115610d51577f4e487b7100000000000000000000000000000000000000000000000000000000600052602160045260246000fd5b856001811115610d8a577f4e487b7100000000000000000000000000000000000000000000000000000000600052602160045260246000fd5b1415610db05780836002016000828254610da4919061142c565b92505081905550610dcc565b80836003016000828254610dc4919061142c565b925050819055505b505050505050565b610ddc610ecc565b73ffffffffffffffffffffffffffffffffffffffff16610dfa610961565b73ffffffffffffffffffffffffffffffffffffffff1614610e50576040517f08c379a0000000000000000000000000000000000000000000000000000000008152600401610e479061136d565b60405180910390fd5b600073ffffffffffffffffffffffffffffffffffffffff168173ffffffffffffffffffffffffffffffffffffffff161415610ec0576040517f08c379a0000000000000000000000000000000000000000000000000000000008152600401610eb7906112ad565b60405180910390fd5b610ec981610ed4565b50565b600033905090565b60008060009054906101000a900473ffffffffffffffffffffffffffffffffffffffff169050816000806101000a81548173ffffffffffffffffffffffffffffffffffffffff021916908373ffffffffffffffffffffffffffffffffffffffff1602179055508173ffffffffffffffffffffffffffffffffffffffff168173ffffffffffffffffffffffffffffffffffffffff167f8be0079c531659141344cd1fd0a4f28419497f9722a3daafe3b4186f6b6457e060405160405180910390a35050565b600081359050610fa78161170d565b92915050565b600081519050610fbc81611724565b92915050565b600081359050610fd18161173b565b92915050565b600081359050610fe68161174b565b92915050565b600081519050610ffb8161174b565b92915050565b60006020828403121561101357600080fd5b600061102184828501610f98565b91505092915050565b60006020828403121561103c57600080fd5b600061104a84828501610fad565b91505092915050565b60006020828403121561106557600080fd5b600061107384828501610fd7565b91505092915050565b60006020828403121561108e57600080fd5b600061109c84828501610fec565b91505092915050565b600080604083850312156110b857600080fd5b60006110c685828601610fd7565b92505060206110d785828601610fc2565b9150509250929050565b6110ea816114b6565b82525050565b6110f9816114c8565b82525050565b600061110c60158361141b565b915061111782611576565b602082019050919050565b600061112f60268361141b565b915061113a8261159f565b604082019050919050565b600061115260198361141b565b915061115d826115ee565b602082019050919050565b600061117560118361141b565b915061118082611617565b602082019050919050565b600061119860108361141b565b91506111a382611640565b602082019050919050565b60006111bb600d8361141b565b91506111c682611669565b602082019050919050565b60006111de60108361141b565b91506111e982611692565b602082019050919050565b600061120160208361141b565b915061120c826116bb565b602082019050919050565b600061122460108361141b565b915061122f826116e4565b602082019050919050565b611243816114f4565b82525050565b600060208201905061125e60008301846110e1565b92915050565b600060408201905061127960008301856110e1565b611286602083018461123a565b9392505050565b600060208201905081810360008301526112a6816110ff565b9050919050565b600060208201905081810360008301526112c681611122565b9050919050565b600060208201905081810360008301526112e681611145565b9050919050565b6000602082019050818103600083015261130681611168565b9050919050565b600060208201905081810360008301526113268161118b565b9050919050565b60006020820190508181036000830152611346816111ae565b9050919050565b60006020820190508181036000830152611366816111d1565b9050919050565b60006020820190508181036000830152611386816111f4565b9050919050565b600060208201905081810360008301526113a681611217565b9050919050565b60006020820190506113c2600083018461123a565b92915050565b600060a0820190506113dd600083018861123a565b6113ea602083018761123a565b6113f7604083018661123a565b611404606083018561123a565b61141160808301846110f0565b9695505050505050565b600082825260208201905092915050565b6000611437826114f4565b9150611442836114f4565b9250827fffffffffffffffffffffffffffffffffffffffffffffffffffffffffffffffff0382111561147757611476611547565b5b828201905092915050565b600061148d826114f4565b9150611498836114f4565b9250828210156114ab576114aa611547565b5b828203905092915050565b60006114c1826114d4565b9050919050565b60008115159050919050565b600073ffffffffffffffffffffffffffffffffffffffff82169050919050565b6000819050919050565b6000611509826114f4565b91507fffffffffffffffffffffffffffffffffffffffffffffffffffffffffffffffff82141561153c5761153b611547565b5b600182019050919050565b7f4e487b7100000000000000000000000000000000000000000000000000000000600052601160045260246000fd5b7f444541444c494e455f4e4f545f45584345454445440000000000000000000000600082015250565b7f4f776e61626c653a206e6577206f776e657220697320746865207a65726f206160008201527f6464726573730000000000000000000000000000000000000000000000000000602082015250565b7f50524f504f53414c5f414c52454144595f455845435554454400000000000000600082015250565b7f444541444c494e455f4558434545444544000000000000000000000000000000600082015250565b7f4e46545f4e4f545f464f525f53414c4500000000000000000000000000000000600082015250565b7f414c52454144595f564f54454400000000000000000000000000000000000000600082015250565b7f4e4f545f415f44414f5f4d454d42455200000000000000000000000000000000600082015250565b7f4f776e61626c653a2063616c6c6572206973206e6f7420746865206f776e6572600082015250565b7f4e4f545f454e4f5547485f46554e445300000000000000000000000000000000600082015250565b611716816114b6565b811461172157600080fd5b50565b61172d816114c8565b811461173857600080fd5b50565b6002811061174857600080fd5b50565b611754816114f4565b811461175f57600080fd5b5056fea2646970667358221220cfe95732784023818482e74641bd2027f6fe673fd92d76d9b5bb8031c775354764736f6c63430008040033",
  "linkReferences": {},
  "deployedLinkReferences": {}
}