{
  "_format": "hh-sol-artifact-1",
  "contractName": "RandomWinnerGame",
  "sourceName": "contracts/RandomWinnerGame.sol",
  "address": "0x1E95992c65d504ad2256FDBC5c38725876b7A6a5",
  "abi": [
    {
      "inputs": [
        {
          "internalType": "address",
          "name": "vrfCoordinator",
          "type": "address"
        },
        {
          "internalType": "address",
          "name": "linkToken",
          "type": "address"
        },
        {
          "internalType": "bytes32",
          "name": "vrfKeyHash",
          "type": "bytes32"
        },
        {
          "internalType": "uint256",
          "name": "vrfFee",
          "type": "uint256"
        }
      ],
      "stateMutability": "nonpayable",
      "type": "constructor"
    },
    {
      "anonymous": false,
      "inputs": [
        {
          "indexed": false,
          "internalType": "uint256",
          "name": "gameId",
          "type": "uint256"
        },
        {
          "indexed": false,
          "internalType": "address",
          "name": "winner",
          "type": "address"
        },
        {
          "indexed": false,
          "internalType": "bytes32",
          "name": "requestId",
          "type": "bytes32"
        }
      ],
      "name": "GameEnded",
      "type": "event"
    },
    {
      "anonymous": false,
      "inputs": [
        {
          "indexed": false,
          "internalType": "uint256",
          "name": "gameId",
          "type": "uint256"
        },
        {
          "indexed": false,
          "internalType": "uint8",
          "name": "maxPlayers",
          "type": "uint8"
        },
        {
          "indexed": false,
          "internalType": "uint256",
          "name": "entryFee",
          "type": "uint256"
        }
      ],
      "name": "GameStarted",
      "type": "event"
    },
    {
      "anonymous": false,
      "inputs": [
        {
          "indexed": true,
          "internalType": "address",
          "name": "previousOwner",
          "type": "address"
        },
        {
          "indexed": true,
          "internalType": "address",
          "name": "newOwner",
          "type": "address"
        }
      ],
      "name": "OwnershipTransferred",
      "type": "event"
    },
    {
      "anonymous": false,
      "inputs": [
        {
          "indexed": false,
          "internalType": "uint256",
          "name": "gameId",
          "type": "uint256"
        },
        {
          "indexed": false,
          "internalType": "address",
          "name": "player",
          "type": "address"
        }
      ],
      "name": "PlayerJoined",
      "type": "event"
    },
    {
      "stateMutability": "payable",
      "type": "fallback"
    },
    {
      "inputs": [],
      "name": "fee",
      "outputs": [
        {
          "internalType": "uint256",
          "name": "",
          "type": "uint256"
        }
      ],
      "stateMutability": "view",
      "type": "function"
    },
    {
      "inputs": [],
      "name": "gameId",
      "outputs": [
        {
          "internalType": "uint256",
          "name": "",
          "type": "uint256"
        }
      ],
      "stateMutability": "view",
      "type": "function"
    },
    {
      "inputs": [],
      "name": "gameStarted",
      "outputs": [
        {
          "internalType": "bool",
          "name": "",
          "type": "bool"
        }
      ],
      "stateMutability": "view",
      "type": "function"
    },
    {
      "inputs": [],
      "name": "joinGame",
      "outputs": [],
      "stateMutability": "payable",
      "type": "function"
    },
    {
      "inputs": [],
      "name": "keyHash",
      "outputs": [
        {
          "internalType": "bytes32",
          "name": "",
          "type": "bytes32"
        }
      ],
      "stateMutability": "view",
      "type": "function"
    },
    {
      "inputs": [],
      "name": "owner",
      "outputs": [
        {
          "internalType": "address",
          "name": "",
          "type": "address"
        }
      ],
      "stateMutability": "view",
      "type": "function"
    },
    {
      "inputs": [
        {
          "internalType": "uint256",
          "name": "",
          "type": "uint256"
        }
      ],
      "name": "players",
      "outputs": [
        {
          "internalType": "address",
          "name": "",
          "type": "address"
        }
      ],
      "stateMutability": "view",
      "type": "function"
    },
    {
      "inputs": [
        {
          "internalType": "bytes32",
          "name": "requestId",
          "type": "bytes32"
        },
        {
          "internalType": "uint256",
          "name": "randomness",
          "type": "uint256"
        }
      ],
      "name": "rawFulfillRandomness",
      "outputs": [],
      "stateMutability": "nonpayable",
      "type": "function"
    },
    {
      "inputs": [],
      "name": "renounceOwnership",
      "outputs": [],
      "stateMutability": "nonpayable",
      "type": "function"
    },
    {
      "inputs": [
        {
          "internalType": "uint8",
          "name": "_maxPlayers",
          "type": "uint8"
        },
        {
          "internalType": "uint256",
          "name": "_entryFee",
          "type": "uint256"
        }
      ],
      "name": "startGame",
      "outputs": [],
      "stateMutability": "nonpayable",
      "type": "function"
    },
    {
      "inputs": [
        {
          "internalType": "address",
          "name": "newOwner",
          "type": "address"
        }
      ],
      "name": "transferOwnership",
      "outputs": [],
      "stateMutability": "nonpayable",
      "type": "function"
    },
    {
      "stateMutability": "payable",
      "type": "receive"
    }
  ],
  "bytecode": "0x60c06040523480156200001157600080fd5b5060405162001be238038062001be283398181016040528101906200003791906200020f565b83838173ffffffffffffffffffffffffffffffffffffffff1660a08173ffffffffffffffffffffffffffffffffffffffff1660601b815250508073ffffffffffffffffffffffffffffffffffffffff1660808173ffffffffffffffffffffffffffffffffffffffff1660601b815250505050620000c9620000bd620000fc60201b60201c565b6200010460201b60201c565b81600381905550806002819055506000600560016101000a81548160ff0219169083151502179055505050505062000311565b600033905090565b6000600160009054906101000a900473ffffffffffffffffffffffffffffffffffffffff16905081600160006101000a81548173ffffffffffffffffffffffffffffffffffffffff021916908373ffffffffffffffffffffffffffffffffffffffff1602179055508173ffffffffffffffffffffffffffffffffffffffff168173ffffffffffffffffffffffffffffffffffffffff167f8be0079c531659141344cd1fd0a4f28419497f9722a3daafe3b4186f6b6457e060405160405180910390a35050565b600081519050620001db81620002c3565b92915050565b600081519050620001f281620002dd565b92915050565b6000815190506200020981620002f7565b92915050565b600080600080608085870312156200022657600080fd5b60006200023687828801620001ca565b94505060206200024987828801620001ca565b93505060406200025c87828801620001e1565b92505060606200026f87828801620001f8565b91505092959194509250565b6000620002888262000299565b9050919050565b6000819050919050565b600073ffffffffffffffffffffffffffffffffffffffff82169050919050565b6000819050919050565b620002ce816200027b565b8114620002da57600080fd5b50565b620002e8816200028f565b8114620002f457600080fd5b50565b6200030281620002b9565b81146200030e57600080fd5b50565b60805160601c60a05160601c6118976200034b600039600081816103260152610bd4015260008181610a990152610b9801526118976000f3fe6080604052600436106100a05760003560e01c8063d4f77b1c11610064578063d4f77b1c1461016a578063d7c81b5514610174578063ddca3f431461019f578063e849c38e146101ca578063f2fde38b146101f3578063f71d96cb1461021c576100a7565b80635e123ce4146100a957806361728f39146100d4578063715018a6146100ff5780638da5cb5b1461011657806394985ddd14610141576100a7565b366100a757005b005b3480156100b557600080fd5b506100be610259565b6040516100cb91906111e4565b60405180910390f35b3480156100e057600080fd5b506100e961026c565b6040516100f691906111ff565b60405180910390f35b34801561010b57600080fd5b50610114610272565b005b34801561012257600080fd5b5061012b6102fa565b604051610138919061118b565b60405180910390f35b34801561014d57600080fd5b5061016860048036038101906101639190610e70565b610324565b005b6101726103c0565b005b34801561018057600080fd5b50610189610575565b60405161019691906113a8565b60405180910390f35b3480156101ab57600080fd5b506101b461057b565b6040516101c191906113a8565b60405180910390f35b3480156101d657600080fd5b506101f160048036038101906101ec9190610efe565b610581565b005b3480156101ff57600080fd5b5061021a60048036038101906102159190610e1e565b610704565b005b34801561022857600080fd5b50610243600480360381019061023e9190610eac565b6107fc565b604051610250919061118b565b60405180910390f35b600560019054906101000a900460ff1681565b60035481565b61027a61083b565b73ffffffffffffffffffffffffffffffffffffffff166102986102fa565b73ffffffffffffffffffffffffffffffffffffffff16146102ee576040517f08c379a00000000000000000000000000000000000000000000000000000000081526004016102e590611348565b60405180910390fd5b6102f86000610843565b565b6000600160009054906101000a900473ffffffffffffffffffffffffffffffffffffffff16905090565b7f000000000000000000000000000000000000000000000000000000000000000073ffffffffffffffffffffffffffffffffffffffff163373ffffffffffffffffffffffffffffffffffffffff16146103b2576040517f08c379a00000000000000000000000000000000000000000000000000000000081526004016103a990611368565b60405180910390fd5b6103bc8282610909565b5050565b600560019054906101000a900460ff1661040f576040517f08c379a0000000000000000000000000000000000000000000000000000000008152600401610406906112a8565b60405180910390fd5b6006543414610453576040517f08c379a000000000000000000000000000000000000000000000000000000000815260040161044a90611328565b60405180910390fd5b600560009054906101000a900460ff1660ff16600480549050106104ac576040517f08c379a00000000000000000000000000000000000000000000000000000000081526004016104a390611288565b60405180910390fd5b6004339080600181540180825580915050600190039060005260206000200160009091909190916101000a81548173ffffffffffffffffffffffffffffffffffffffff021916908373ffffffffffffffffffffffffffffffffffffffff1602179055507f87969bc7faf902221a147b95ceba76e011c5efb0339a0a8ee7a2bb82d9cfbbd6600754336040516105429291906113c3565b60405180910390a1600560009054906101000a900460ff1660ff16600480549050141561057357610571610a92565b505b565b60075481565b60025481565b61058961083b565b73ffffffffffffffffffffffffffffffffffffffff166105a76102fa565b73ffffffffffffffffffffffffffffffffffffffff16146105fd576040517f08c379a00000000000000000000000000000000000000000000000000000000081526004016105f490611348565b60405180910390fd5b600560019054906101000a900460ff161561064d576040517f08c379a000000000000000000000000000000000000000000000000000000000815260040161064490611388565b60405180910390fd5b6004600061065b9190610d62565b81600560006101000a81548160ff021916908360ff1602179055506001600560016101000a81548160ff021916908315150217905550806006819055506001600760008282546106ab9190611492565b925050819055507f10a7675bf1b19b67834ca5a59866847fd31c62cdfc8e9466039e6b8e088e15ae600754600560009054906101000a900460ff166006546040516106f893929190611423565b60405180910390a15050565b61070c61083b565b73ffffffffffffffffffffffffffffffffffffffff1661072a6102fa565b73ffffffffffffffffffffffffffffffffffffffff1614610780576040517f08c379a000000000000000000000000000000000000000000000000000000000815260040161077790611348565b60405180910390fd5b600073ffffffffffffffffffffffffffffffffffffffff168173ffffffffffffffffffffffffffffffffffffffff1614156107f0576040517f08c379a00000000000000000000000000000000000000000000000000000000081526004016107e7906112c8565b60405180910390fd5b6107f981610843565b50565b6004818154811061080c57600080fd5b906000526020600020016000915054906101000a900473ffffffffffffffffffffffffffffffffffffffff1681565b600033905090565b6000600160009054906101000a900473ffffffffffffffffffffffffffffffffffffffff16905081600160006101000a81548173ffffffffffffffffffffffffffffffffffffffff021916908373ffffffffffffffffffffffffffffffffffffffff1602179055508173ffffffffffffffffffffffffffffffffffffffff168173ffffffffffffffffffffffffffffffffffffffff167f8be0079c531659141344cd1fd0a4f28419497f9722a3daafe3b4186f6b6457e060405160405180910390a35050565b60006004805490508261091c919061158e565b905060006004828154811061095a577f4e487b7100000000000000000000000000000000000000000000000000000000600052603260045260246000fd5b9060005260206000200160009054906101000a900473ffffffffffffffffffffffffffffffffffffffff16905060008173ffffffffffffffffffffffffffffffffffffffff16476040516109ad90611176565b60006040518083038185875af1925050503d80600081146109ea576040519150601f19603f3d011682016040523d82523d6000602084013e6109ef565b606091505b5050905080610a33576040517f08c379a0000000000000000000000000000000000000000000000000000000008152600401610a2a906112e8565b60405180910390fd5b7fd2da138ec4b828f6f1dd931eea0488e41e941f7cda657ad8f524ede8cb2c7ce06007548387604051610a68939291906113ec565b60405180910390a16000600560016101000a81548160ff0219169083151502179055505050505050565b60006002547f000000000000000000000000000000000000000000000000000000000000000073ffffffffffffffffffffffffffffffffffffffff166370a08231306040518263ffffffff1660e01b8152600401610af0919061118b565b60206040518083038186803b158015610b0857600080fd5b505afa158015610b1c573d6000803e3d6000fd5b505050506040513d601f19601f82011682018060405250810190610b409190610ed5565b1015610b81576040517f08c379a0000000000000000000000000000000000000000000000000000000008152600401610b7890611308565b60405180910390fd5b610b8f600354600254610b94565b905090565b60007f000000000000000000000000000000000000000000000000000000000000000073ffffffffffffffffffffffffffffffffffffffff16634000aea07f000000000000000000000000000000000000000000000000000000000000000084866000604051602001610c0892919061121a565b6040516020818303038152906040526040518463ffffffff1660e01b8152600401610c35939291906111a6565b602060405180830381600087803b158015610c4f57600080fd5b505af1158015610c63573d6000803e3d6000fd5b505050506040513d601f19601f82011682018060405250810190610c879190610e47565b506000610ca98460003060008089815260200190815260200160002054610cf3565b9050600160008086815260200190815260200160002054610cca9190611492565b60008086815260200190815260200160002081905550610cea8482610d2f565b91505092915050565b600084848484604051602001610d0c9493929190611243565b6040516020818303038152906040528051906020012060001c9050949350505050565b60008282604051602001610d4492919061114a565b60405160208183030381529060405280519060200120905092915050565b5080546000825590600052602060002090810190610d809190610d83565b50565b5b80821115610d9c576000816000905550600101610d84565b5090565b600081359050610daf816117ee565b92915050565b600081519050610dc481611805565b92915050565b600081359050610dd98161181c565b92915050565b600081359050610dee81611833565b92915050565b600081519050610e0381611833565b92915050565b600081359050610e188161184a565b92915050565b600060208284031215610e3057600080fd5b6000610e3e84828501610da0565b91505092915050565b600060208284031215610e5957600080fd5b6000610e6784828501610db5565b91505092915050565b60008060408385031215610e8357600080fd5b6000610e9185828601610dca565b9250506020610ea285828601610ddf565b9150509250929050565b600060208284031215610ebe57600080fd5b6000610ecc84828501610ddf565b91505092915050565b600060208284031215610ee757600080fd5b6000610ef584828501610df4565b91505092915050565b60008060408385031215610f1157600080fd5b6000610f1f85828601610e09565b9250506020610f3085828601610ddf565b9150509250929050565b610f43816114e8565b82525050565b610f52816114fa565b82525050565b610f6181611506565b82525050565b610f78610f7382611506565b61157a565b82525050565b6000610f898261145a565b610f938185611465565b9350610fa3818560208601611547565b610fac8161161d565b840191505092915050565b6000610fc4600c83611481565b9150610fcf8261162e565b602082019050919050565b6000610fe7601d83611481565b9150610ff282611657565b602082019050919050565b600061100a602683611481565b915061101582611680565b604082019050919050565b600061102d601483611481565b9150611038826116cf565b602082019050919050565b6000611050600f83611481565b915061105b826116f8565b602082019050919050565b6000611073602383611481565b915061107e82611721565b604082019050919050565b6000611096602083611481565b91506110a182611770565b602082019050919050565b60006110b9601f83611481565b91506110c482611799565b602082019050919050565b60006110dc600083611476565b91506110e7826117c2565b600082019050919050565b60006110ff601983611481565b915061110a826117c5565b602082019050919050565b61111e81611530565b82525050565b61113561113082611530565b611584565b82525050565b6111448161153a565b82525050565b60006111568285610f67565b6020820191506111668284611124565b6020820191508190509392505050565b6000611181826110cf565b9150819050919050565b60006020820190506111a06000830184610f3a565b92915050565b60006060820190506111bb6000830186610f3a565b6111c86020830185611115565b81810360408301526111da8184610f7e565b9050949350505050565b60006020820190506111f96000830184610f49565b92915050565b60006020820190506112146000830184610f58565b92915050565b600060408201905061122f6000830185610f58565b61123c6020830184611115565b9392505050565b60006080820190506112586000830187610f58565b6112656020830186611115565b6112726040830185610f3a565b61127f6060830184611115565b95945050505050565b600060208201905081810360008301526112a181610fb7565b9050919050565b600060208201905081810360008301526112c181610fda565b9050919050565b600060208201905081810360008301526112e181610ffd565b9050919050565b6000602082019050818103600083015261130181611020565b9050919050565b6000602082019050818103600083015261132181611043565b9050919050565b6000602082019050818103600083015261134181611066565b9050919050565b6000602082019050818103600083015261136181611089565b9050919050565b60006020820190508181036000830152611381816110ac565b9050919050565b600060208201905081810360008301526113a1816110f2565b9050919050565b60006020820190506113bd6000830184611115565b92915050565b60006040820190506113d86000830185611115565b6113e56020830184610f3a565b9392505050565b60006060820190506114016000830186611115565b61140e6020830185610f3a565b61141b6040830184610f58565b949350505050565b60006060820190506114386000830186611115565b611445602083018561113b565b6114526040830184611115565b949350505050565b600081519050919050565b600082825260208201905092915050565b600081905092915050565b600082825260208201905092915050565b600061149d82611530565b91506114a883611530565b9250827fffffffffffffffffffffffffffffffffffffffffffffffffffffffffffffffff038211156114dd576114dc6115bf565b5b828201905092915050565b60006114f382611510565b9050919050565b60008115159050919050565b6000819050919050565b600073ffffffffffffffffffffffffffffffffffffffff82169050919050565b6000819050919050565b600060ff82169050919050565b60005b8381101561156557808201518184015260208101905061154a565b83811115611574576000848401525b50505050565b6000819050919050565b6000819050919050565b600061159982611530565b91506115a483611530565b9250826115b4576115b36115ee565b5b828206905092915050565b7f4e487b7100000000000000000000000000000000000000000000000000000000600052601160045260246000fd5b7f4e487b7100000000000000000000000000000000000000000000000000000000600052601260045260246000fd5b6000601f19601f8301169050919050565b7f47616d652069732066756c6c0000000000000000000000000000000000000000600082015250565b7f47616d6520686173206e6f74206265656e207374617274656420796574000000600082015250565b7f4f776e61626c653a206e6577206f776e657220697320746865207a65726f206160008201527f6464726573730000000000000000000000000000000000000000000000000000602082015250565b7f4661696c656420746f2073656e64204574686572000000000000000000000000600082015250565b7f4e6f7420656e6f756768204c494e4b0000000000000000000000000000000000600082015250565b7f56616c75652073656e74206973206e6f7420657175616c20746f20656e74727960008201527f4665650000000000000000000000000000000000000000000000000000000000602082015250565b7f4f776e61626c653a2063616c6c6572206973206e6f7420746865206f776e6572600082015250565b7f4f6e6c7920565246436f6f7264696e61746f722063616e2066756c66696c6c00600082015250565b50565b7f47616d652069732063757272656e746c792072756e6e696e6700000000000000600082015250565b6117f7816114e8565b811461180257600080fd5b50565b61180e816114fa565b811461181957600080fd5b50565b61182581611506565b811461183057600080fd5b50565b61183c81611530565b811461184757600080fd5b50565b6118538161153a565b811461185e57600080fd5b5056fea26469706673582212205cf7341cc284ad8f75d2727caa03cef87c4f1f3d18c4ab909682ddd0bc9c171664736f6c63430008040033",
  "linkReferences": {},
  "deployedLinkReferences": {}
}