{
  "_format": "hh-sol-artifact-1",
  "contractName": "CryptoDevToken",
  "sourceName": "contracts/CryptoDevToken.sol",
  "address": "0x3518d5085330cBd6b80Dca5e96194BC3b3c74780",
  "abi": [
    {
      "inputs": [
        {
          "internalType": "address",
          "name": "_cryptoDevsContract",
          "type": "address"
        }
      ],
      "stateMutability": "nonpayable",
      "type": "constructor"
    },
    {
      "anonymous": false,
      "inputs": [
        {
          "indexed": true,
          "internalType": "address",
          "name": "owner",
          "type": "address"
        },
        {
          "indexed": true,
          "internalType": "address",
          "name": "spender",
          "type": "address"
        },
        {
          "indexed": false,
          "internalType": "uint256",
          "name": "value",
          "type": "uint256"
        }
      ],
      "name": "Approval",
      "type": "event"
    },
    {
      "anonymous": false,
      "inputs": [
        {
          "indexed": true,
          "internalType": "address",
          "name": "previousOwner",
          "type": "address"
        },
        {
          "indexed": true,
          "internalType": "address",
          "name": "newOwner",
          "type": "address"
        }
      ],
      "name": "OwnershipTransferred",
      "type": "event"
    },
    {
      "anonymous": false,
      "inputs": [
        {
          "indexed": true,
          "internalType": "address",
          "name": "from",
          "type": "address"
        },
        {
          "indexed": true,
          "internalType": "address",
          "name": "to",
          "type": "address"
        },
        {
          "indexed": false,
          "internalType": "uint256",
          "name": "value",
          "type": "uint256"
        }
      ],
      "name": "Transfer",
      "type": "event"
    },
    {
      "stateMutability": "payable",
      "type": "fallback"
    },
    {
      "inputs": [
        {
          "internalType": "address",
          "name": "owner",
          "type": "address"
        },
        {
          "internalType": "address",
          "name": "spender",
          "type": "address"
        }
      ],
      "name": "allowance",
      "outputs": [
        {
          "internalType": "uint256",
          "name": "",
          "type": "uint256"
        }
      ],
      "stateMutability": "view",
      "type": "function"
    },
    {
      "inputs": [
        {
          "internalType": "address",
          "name": "spender",
          "type": "address"
        },
        {
          "internalType": "uint256",
          "name": "amount",
          "type": "uint256"
        }
      ],
      "name": "approve",
      "outputs": [
        {
          "internalType": "bool",
          "name": "",
          "type": "bool"
        }
      ],
      "stateMutability": "nonpayable",
      "type": "function"
    },
    {
      "inputs": [
        {
          "internalType": "address",
          "name": "account",
          "type": "address"
        }
      ],
      "name": "balanceOf",
      "outputs": [
        {
          "internalType": "uint256",
          "name": "",
          "type": "uint256"
        }
      ],
      "stateMutability": "view",
      "type": "function"
    },
    {
      "inputs": [],
      "name": "claim",
      "outputs": [],
      "stateMutability": "nonpayable",
      "type": "function"
    },
    {
      "inputs": [],
      "name": "decimals",
      "outputs": [
        {
          "internalType": "uint8",
          "name": "",
          "type": "uint8"
        }
      ],
      "stateMutability": "view",
      "type": "function"
    },
    {
      "inputs": [
        {
          "internalType": "address",
          "name": "spender",
          "type": "address"
        },
        {
          "internalType": "uint256",
          "name": "subtractedValue",
          "type": "uint256"
        }
      ],
      "name": "decreaseAllowance",
      "outputs": [
        {
          "internalType": "bool",
          "name": "",
          "type": "bool"
        }
      ],
      "stateMutability": "nonpayable",
      "type": "function"
    },
    {
      "inputs": [
        {
          "internalType": "address",
          "name": "spender",
          "type": "address"
        },
        {
          "internalType": "uint256",
          "name": "addedValue",
          "type": "uint256"
        }
      ],
      "name": "increaseAllowance",
      "outputs": [
        {
          "internalType": "bool",
          "name": "",
          "type": "bool"
        }
      ],
      "stateMutability": "nonpayable",
      "type": "function"
    },
    {
      "inputs": [],
      "name": "maxTotalSupply",
      "outputs": [
        {
          "internalType": "uint256",
          "name": "",
          "type": "uint256"
        }
      ],
      "stateMutability": "view",
      "type": "function"
    },
    {
      "inputs": [
        {
          "internalType": "uint256",
          "name": "amount",
          "type": "uint256"
        }
      ],
      "name": "mint",
      "outputs": [],
      "stateMutability": "payable",
      "type": "function"
    },
    {
      "inputs": [],
      "name": "name",
      "outputs": [
        {
          "internalType": "string",
          "name": "",
          "type": "string"
        }
      ],
      "stateMutability": "view",
      "type": "function"
    },
    {
      "inputs": [],
      "name": "owner",
      "outputs": [
        {
          "internalType": "address",
          "name": "",
          "type": "address"
        }
      ],
      "stateMutability": "view",
      "type": "function"
    },
    {
      "inputs": [],
      "name": "renounceOwnership",
      "outputs": [],
      "stateMutability": "nonpayable",
      "type": "function"
    },
    {
      "inputs": [],
      "name": "symbol",
      "outputs": [
        {
          "internalType": "string",
          "name": "",
          "type": "string"
        }
      ],
      "stateMutability": "view",
      "type": "function"
    },
    {
      "inputs": [
        {
          "internalType": "uint256",
          "name": "",
          "type": "uint256"
        }
      ],
      "name": "tokenIdsClaimed",
      "outputs": [
        {
          "internalType": "bool",
          "name": "",
          "type": "bool"
        }
      ],
      "stateMutability": "view",
      "type": "function"
    },
    {
      "inputs": [],
      "name": "tokenPrice",
      "outputs": [
        {
          "internalType": "uint256",
          "name": "",
          "type": "uint256"
        }
      ],
      "stateMutability": "view",
      "type": "function"
    },
    {
      "inputs": [],
      "name": "tokensPerNFT",
      "outputs": [
        {
          "internalType": "uint256",
          "name": "",
          "type": "uint256"
        }
      ],
      "stateMutability": "view",
      "type": "function"
    },
    {
      "inputs": [],
      "name": "totalSupply",
      "outputs": [
        {
          "internalType": "uint256",
          "name": "",
          "type": "uint256"
        }
      ],
      "stateMutability": "view",
      "type": "function"
    },
    {
      "inputs": [
        {
          "internalType": "address",
          "name": "to",
          "type": "address"
        },
        {
          "internalType": "uint256",
          "name": "amount",
          "type": "uint256"
        }
      ],
      "name": "transfer",
      "outputs": [
        {
          "internalType": "bool",
          "name": "",
          "type": "bool"
        }
      ],
      "stateMutability": "nonpayable",
      "type": "function"
    },
    {
      "inputs": [
        {
          "internalType": "address",
          "name": "from",
          "type": "address"
        },
        {
          "internalType": "address",
          "name": "to",
          "type": "address"
        },
        {
          "internalType": "uint256",
          "name": "amount",
          "type": "uint256"
        }
      ],
      "name": "transferFrom",
      "outputs": [
        {
          "internalType": "bool",
          "name": "",
          "type": "bool"
        }
      ],
      "stateMutability": "nonpayable",
      "type": "function"
    },
    {
      "inputs": [
        {
          "internalType": "address",
          "name": "newOwner",
          "type": "address"
        }
      ],
      "name": "transferOwnership",
      "outputs": [],
      "stateMutability": "nonpayable",
      "type": "function"
    },
    {
      "stateMutability": "payable",
      "type": "receive"
    }
  ],
  "bytecode": "0x60806040523480156200001157600080fd5b50604051620024f6380380620024f6833981810160405281019062000037919062000327565b6040518060400160405280601081526020017f43727970746f2044657620546f6b656e000000000000000000000000000000008152506040518060400160405280600281526020017f43440000000000000000000000000000000000000000000000000000000000008152508160039080519060200190620000bb9291906200020d565b508060049080519060200190620000d49291906200020d565b505050620000f7620000eb6200013f60201b60201c565b6200014760201b60201c565b80600660006101000a81548173ffffffffffffffffffffffffffffffffffffffff021916908373ffffffffffffffffffffffffffffffffffffffff16021790555050620003be565b600033905090565b6000600560009054906101000a900473ffffffffffffffffffffffffffffffffffffffff16905081600560006101000a81548173ffffffffffffffffffffffffffffffffffffffff021916908373ffffffffffffffffffffffffffffffffffffffff1602179055508173ffffffffffffffffffffffffffffffffffffffff168173ffffffffffffffffffffffffffffffffffffffff167f8be0079c531659141344cd1fd0a4f28419497f9722a3daafe3b4186f6b6457e060405160405180910390a35050565b8280546200021b9062000388565b90600052602060002090601f0160209004810192826200023f57600085556200028b565b82601f106200025a57805160ff19168380011785556200028b565b828001600101855582156200028b579182015b828111156200028a5782518255916020019190600101906200026d565b5b5090506200029a91906200029e565b5090565b5b80821115620002b95760008160009055506001016200029f565b5090565b600080fd5b600073ffffffffffffffffffffffffffffffffffffffff82169050919050565b6000620002ef82620002c2565b9050919050565b6200030181620002e2565b81146200030d57600080fd5b50565b6000815190506200032181620002f6565b92915050565b60006020828403121562000340576200033f620002bd565b5b6000620003508482850162000310565b91505092915050565b7f4e487b7100000000000000000000000000000000000000000000000000000000600052602260045260246000fd5b60006002820490506001821680620003a157607f821691505b60208210811415620003b857620003b762000359565b5b50919050565b61212880620003ce6000396000f3fe6080604052600436106101235760003560e01c806370a08231116100a0578063a0712d6811610064578063a0712d68146103e3578063a457c2d7146103ff578063a9059cbb1461043c578063dd62ed3e14610479578063f2fde38b146104b65761012a565b806370a082311461030e578063715018a61461034b5780637ff9b596146103625780638da5cb5b1461038d57806395d89b41146103b85761012a565b8063313ce567116100e7578063313ce5671461022757806339509351146102525780634e71d92d1461028f5780635afcc2f5146102a65780635f3690af146102d15761012a565b806306fdde031461012c578063095ea7b31461015757806318160ddd1461019457806323b872dd146101bf5780632ab4d052146101fc5761012a565b3661012a57005b005b34801561013857600080fd5b506101416104df565b60405161014e91906114f1565b60405180910390f35b34801561016357600080fd5b5061017e600480360381019061017991906115ac565b610571565b60405161018b9190611607565b60405180910390f35b3480156101a057600080fd5b506101a9610594565b6040516101b69190611631565b60405180910390f35b3480156101cb57600080fd5b506101e660048036038101906101e1919061164c565b61059e565b6040516101f39190611607565b60405180910390f35b34801561020857600080fd5b506102116105cd565b60405161021e9190611631565b60405180910390f35b34801561023357600080fd5b5061023c6105db565b60405161024991906116bb565b60405180910390f35b34801561025e57600080fd5b50610279600480360381019061027491906115ac565b6105e4565b6040516102869190611607565b60405180910390f35b34801561029b57600080fd5b506102a461061b565b005b3480156102b257600080fd5b506102bb61088c565b6040516102c89190611631565b60405180910390f35b3480156102dd57600080fd5b506102f860048036038101906102f391906116d6565b610898565b6040516103059190611607565b60405180910390f35b34801561031a57600080fd5b5061033560048036038101906103309190611703565b6108b8565b6040516103429190611631565b60405180910390f35b34801561035757600080fd5b50610360610900565b005b34801561036e57600080fd5b50610377610988565b6040516103849190611631565b60405180910390f35b34801561039957600080fd5b506103a2610993565b6040516103af919061173f565b60405180910390f35b3480156103c457600080fd5b506103cd6109bd565b6040516103da91906114f1565b60405180910390f35b6103fd60048036038101906103f891906116d6565b610a4f565b005b34801561040b57600080fd5b50610426600480360381019061042191906115ac565b610b2f565b6040516104339190611607565b60405180910390f35b34801561044857600080fd5b50610463600480360381019061045e91906115ac565b610ba6565b6040516104709190611607565b60405180910390f35b34801561048557600080fd5b506104a0600480360381019061049b919061175a565b610bc9565b6040516104ad9190611631565b60405180910390f35b3480156104c257600080fd5b506104dd60048036038101906104d89190611703565b610c50565b005b6060600380546104ee906117c9565b80601f016020809104026020016040519081016040528092919081815260200182805461051a906117c9565b80156105675780601f1061053c57610100808354040283529160200191610567565b820191906000526020600020905b81548152906001019060200180831161054a57829003601f168201915b5050505050905090565b60008061057c610d48565b9050610589818585610d50565b600191505092915050565b6000600254905090565b6000806105a9610d48565b90506105b6858285610f1b565b6105c1858585610fa7565b60019150509392505050565b69021e19e0c9bab240000081565b60006012905090565b6000806105ef610d48565b90506106108185856106018589610bc9565b61060b919061182a565b610d50565b600191505092915050565b60003390506000600660009054906101000a900473ffffffffffffffffffffffffffffffffffffffff1673ffffffffffffffffffffffffffffffffffffffff166370a08231836040518263ffffffff1660e01b815260040161067d919061173f565b602060405180830381865afa15801561069a573d6000803e3d6000fd5b505050506040513d601f19601f820116820180604052508101906106be9190611895565b905060008111610703576040517f08c379a00000000000000000000000000000000000000000000000000000000081526004016106fa90611934565b60405180910390fd5b6000805b82811015610826576000600660009054906101000a900473ffffffffffffffffffffffffffffffffffffffff1673ffffffffffffffffffffffffffffffffffffffff16632f745c5986846040518363ffffffff1660e01b815260040161076e929190611954565b602060405180830381865afa15801561078b573d6000803e3d6000fd5b505050506040513d601f19601f820116820180604052508101906107af9190611895565b90506007600082815260200190815260200160002060009054906101000a900460ff16610812576001836107e3919061182a565b925060016007600083815260200190815260200160002060006101000a81548160ff0219169083151502179055505b50808061081e9061197d565b915050610707565b506000811161086a576040517f08c379a000000000000000000000000000000000000000000000000000000000815260040161086190611a38565b60405180910390fd5b61088733678ac7230489e80000836108829190611a58565b611228565b505050565b678ac7230489e8000081565b60076020528060005260406000206000915054906101000a900460ff1681565b60008060008373ffffffffffffffffffffffffffffffffffffffff1673ffffffffffffffffffffffffffffffffffffffff168152602001908152602001600020549050919050565b610908610d48565b73ffffffffffffffffffffffffffffffffffffffff16610926610993565b73ffffffffffffffffffffffffffffffffffffffff161461097c576040517f08c379a000000000000000000000000000000000000000000000000000000000815260040161097390611afe565b60405180910390fd5b6109866000611388565b565b66038d7ea4c6800081565b6000600560009054906101000a900473ffffffffffffffffffffffffffffffffffffffff16905090565b6060600480546109cc906117c9565b80601f01602080910402602001604051908101604052809291908181526020018280546109f8906117c9565b8015610a455780601f10610a1a57610100808354040283529160200191610a45565b820191906000526020600020905b815481529060010190602001808311610a2857829003601f168201915b5050505050905090565b60008166038d7ea4c68000610a649190611a58565b905080341015610aa9576040517f08c379a0000000000000000000000000000000000000000000000000000000008152600401610aa090611b6a565b60405180910390fd5b6000670de0b6b3a764000083610abf9190611a58565b905069021e19e0c9bab240000081610ad5610594565b610adf919061182a565b1115610b20576040517f08c379a0000000000000000000000000000000000000000000000000000000008152600401610b1790611bfc565b60405180910390fd5b610b2a3382611228565b505050565b600080610b3a610d48565b90506000610b488286610bc9565b905083811015610b8d576040517f08c379a0000000000000000000000000000000000000000000000000000000008152600401610b8490611c8e565b60405180910390fd5b610b9a8286868403610d50565b60019250505092915050565b600080610bb1610d48565b9050610bbe818585610fa7565b600191505092915050565b6000600160008473ffffffffffffffffffffffffffffffffffffffff1673ffffffffffffffffffffffffffffffffffffffff16815260200190815260200160002060008373ffffffffffffffffffffffffffffffffffffffff1673ffffffffffffffffffffffffffffffffffffffff16815260200190815260200160002054905092915050565b610c58610d48565b73ffffffffffffffffffffffffffffffffffffffff16610c76610993565b73ffffffffffffffffffffffffffffffffffffffff1614610ccc576040517f08c379a0000000000000000000000000000000000000000000000000000000008152600401610cc390611afe565b60405180910390fd5b600073ffffffffffffffffffffffffffffffffffffffff168173ffffffffffffffffffffffffffffffffffffffff161415610d3c576040517f08c379a0000000000000000000000000000000000000000000000000000000008152600401610d3390611d20565b60405180910390fd5b610d4581611388565b50565b600033905090565b600073ffffffffffffffffffffffffffffffffffffffff168373ffffffffffffffffffffffffffffffffffffffff161415610dc0576040517f08c379a0000000000000000000000000000000000000000000000000000000008152600401610db790611db2565b60405180910390fd5b600073ffffffffffffffffffffffffffffffffffffffff168273ffffffffffffffffffffffffffffffffffffffff161415610e30576040517f08c379a0000000000000000000000000000000000000000000000000000000008152600401610e2790611e44565b60405180910390fd5b80600160008573ffffffffffffffffffffffffffffffffffffffff1673ffffffffffffffffffffffffffffffffffffffff16815260200190815260200160002060008473ffffffffffffffffffffffffffffffffffffffff1673ffffffffffffffffffffffffffffffffffffffff168152602001908152602001600020819055508173ffffffffffffffffffffffffffffffffffffffff168373ffffffffffffffffffffffffffffffffffffffff167f8c5be1e5ebec7d5bd14f71427d1e84f3dd0314c0f7b2291e5b200ac8c7c3b92583604051610f0e9190611631565b60405180910390a3505050565b6000610f278484610bc9565b90507fffffffffffffffffffffffffffffffffffffffffffffffffffffffffffffffff8114610fa15781811015610f93576040517f08c379a0000000000000000000000000000000000000000000000000000000008152600401610f8a90611eb0565b60405180910390fd5b610fa08484848403610d50565b5b50505050565b600073ffffffffffffffffffffffffffffffffffffffff168373ffffffffffffffffffffffffffffffffffffffff161415611017576040517f08c379a000000000000000000000000000000000000000000000000000000000815260040161100e90611f42565b60405180910390fd5b600073ffffffffffffffffffffffffffffffffffffffff168273ffffffffffffffffffffffffffffffffffffffff161415611087576040517f08c379a000000000000000000000000000000000000000000000000000000000815260040161107e90611fd4565b60405180910390fd5b61109283838361144e565b60008060008573ffffffffffffffffffffffffffffffffffffffff1673ffffffffffffffffffffffffffffffffffffffff16815260200190815260200160002054905081811015611118576040517f08c379a000000000000000000000000000000000000000000000000000000000815260040161110f90612066565b60405180910390fd5b8181036000808673ffffffffffffffffffffffffffffffffffffffff1673ffffffffffffffffffffffffffffffffffffffff16815260200190815260200160002081905550816000808573ffffffffffffffffffffffffffffffffffffffff1673ffffffffffffffffffffffffffffffffffffffff16815260200190815260200160002060008282546111ab919061182a565b925050819055508273ffffffffffffffffffffffffffffffffffffffff168473ffffffffffffffffffffffffffffffffffffffff167fddf252ad1be2c89b69c2b068fc378daa952ba7f163c4a11628f55a4df523b3ef8460405161120f9190611631565b60405180910390a3611222848484611453565b50505050565b600073ffffffffffffffffffffffffffffffffffffffff168273ffffffffffffffffffffffffffffffffffffffff161415611298576040517f08c379a000000000000000000000000000000000000000000000000000000000815260040161128f906120d2565b60405180910390fd5b6112a46000838361144e565b80600260008282546112b6919061182a565b92505081905550806000808473ffffffffffffffffffffffffffffffffffffffff1673ffffffffffffffffffffffffffffffffffffffff168152602001908152602001600020600082825461130b919061182a565b925050819055508173ffffffffffffffffffffffffffffffffffffffff16600073ffffffffffffffffffffffffffffffffffffffff167fddf252ad1be2c89b69c2b068fc378daa952ba7f163c4a11628f55a4df523b3ef836040516113709190611631565b60405180910390a361138460008383611453565b5050565b6000600560009054906101000a900473ffffffffffffffffffffffffffffffffffffffff16905081600560006101000a81548173ffffffffffffffffffffffffffffffffffffffff021916908373ffffffffffffffffffffffffffffffffffffffff1602179055508173ffffffffffffffffffffffffffffffffffffffff168173ffffffffffffffffffffffffffffffffffffffff167f8be0079c531659141344cd1fd0a4f28419497f9722a3daafe3b4186f6b6457e060405160405180910390a35050565b505050565b505050565b600081519050919050565b600082825260208201905092915050565b60005b83811015611492578082015181840152602081019050611477565b838111156114a1576000848401525b50505050565b6000601f19601f8301169050919050565b60006114c382611458565b6114cd8185611463565b93506114dd818560208601611474565b6114e6816114a7565b840191505092915050565b6000602082019050818103600083015261150b81846114b8565b905092915050565b600080fd5b600073ffffffffffffffffffffffffffffffffffffffff82169050919050565b600061154382611518565b9050919050565b61155381611538565b811461155e57600080fd5b50565b6000813590506115708161154a565b92915050565b6000819050919050565b61158981611576565b811461159457600080fd5b50565b6000813590506115a681611580565b92915050565b600080604083850312156115c3576115c2611513565b5b60006115d185828601611561565b92505060206115e285828601611597565b9150509250929050565b60008115159050919050565b611601816115ec565b82525050565b600060208201905061161c60008301846115f8565b92915050565b61162b81611576565b82525050565b60006020820190506116466000830184611622565b92915050565b60008060006060848603121561166557611664611513565b5b600061167386828701611561565b935050602061168486828701611561565b925050604061169586828701611597565b9150509250925092565b600060ff82169050919050565b6116b58161169f565b82525050565b60006020820190506116d060008301846116ac565b92915050565b6000602082840312156116ec576116eb611513565b5b60006116fa84828501611597565b91505092915050565b60006020828403121561171957611718611513565b5b600061172784828501611561565b91505092915050565b61173981611538565b82525050565b60006020820190506117546000830184611730565b92915050565b6000806040838503121561177157611770611513565b5b600061177f85828601611561565b925050602061179085828601611561565b9150509250929050565b7f4e487b7100000000000000000000000000000000000000000000000000000000600052602260045260246000fd5b600060028204905060018216806117e157607f821691505b602082108114156117f5576117f461179a565b5b50919050565b7f4e487b7100000000000000000000000000000000000000000000000000000000600052601160045260246000fd5b600061183582611576565b915061184083611576565b9250827fffffffffffffffffffffffffffffffffffffffffffffffffffffffffffffffff03821115611875576118746117fb565b5b828201905092915050565b60008151905061188f81611580565b92915050565b6000602082840312156118ab576118aa611513565b5b60006118b984828501611880565b91505092915050565b7f596f7520646f6e74206f776e20616e792043727970746f20446576204e46542760008201527f7300000000000000000000000000000000000000000000000000000000000000602082015250565b600061191e602183611463565b9150611929826118c2565b604082019050919050565b6000602082019050818103600083015261194d81611911565b9050919050565b60006040820190506119696000830185611730565b6119766020830184611622565b9392505050565b600061198882611576565b91507fffffffffffffffffffffffffffffffffffffffffffffffffffffffffffffffff8214156119bb576119ba6117fb565b5b600182019050919050565b7f596f75206861766520616c726561647920636c61696d656420616c6c2074686560008201527f20746f6b656e7300000000000000000000000000000000000000000000000000602082015250565b6000611a22602783611463565b9150611a2d826119c6565b604082019050919050565b60006020820190508181036000830152611a5181611a15565b9050919050565b6000611a6382611576565b9150611a6e83611576565b9250817fffffffffffffffffffffffffffffffffffffffffffffffffffffffffffffffff0483118215151615611aa757611aa66117fb565b5b828202905092915050565b7f4f776e61626c653a2063616c6c6572206973206e6f7420746865206f776e6572600082015250565b6000611ae8602083611463565b9150611af382611ab2565b602082019050919050565b60006020820190508181036000830152611b1781611adb565b9050919050565b7f45746865722073656e7420697320696e636f7272656374000000000000000000600082015250565b6000611b54601783611463565b9150611b5f82611b1e565b602082019050919050565b60006020820190508181036000830152611b8381611b47565b9050919050565b7f4578636565647320746865206d617820746f74616c20737570706c792061766160008201527f696c61626c652e00000000000000000000000000000000000000000000000000602082015250565b6000611be6602783611463565b9150611bf182611b8a565b604082019050919050565b60006020820190508181036000830152611c1581611bd9565b9050919050565b7f45524332303a2064656372656173656420616c6c6f77616e63652062656c6f7760008201527f207a65726f000000000000000000000000000000000000000000000000000000602082015250565b6000611c78602583611463565b9150611c8382611c1c565b604082019050919050565b60006020820190508181036000830152611ca781611c6b565b9050919050565b7f4f776e61626c653a206e6577206f776e657220697320746865207a65726f206160008201527f6464726573730000000000000000000000000000000000000000000000000000602082015250565b6000611d0a602683611463565b9150611d1582611cae565b604082019050919050565b60006020820190508181036000830152611d3981611cfd565b9050919050565b7f45524332303a20617070726f76652066726f6d20746865207a65726f2061646460008201527f7265737300000000000000000000000000000000000000000000000000000000602082015250565b6000611d9c602483611463565b9150611da782611d40565b604082019050919050565b60006020820190508181036000830152611dcb81611d8f565b9050919050565b7f45524332303a20617070726f766520746f20746865207a65726f20616464726560008201527f7373000000000000000000000000000000000000000000000000000000000000602082015250565b6000611e2e602283611463565b9150611e3982611dd2565b604082019050919050565b60006020820190508181036000830152611e5d81611e21565b9050919050565b7f45524332303a20696e73756666696369656e7420616c6c6f77616e6365000000600082015250565b6000611e9a601d83611463565b9150611ea582611e64565b602082019050919050565b60006020820190508181036000830152611ec981611e8d565b9050919050565b7f45524332303a207472616e736665722066726f6d20746865207a65726f20616460008201527f6472657373000000000000000000000000000000000000000000000000000000602082015250565b6000611f2c602583611463565b9150611f3782611ed0565b604082019050919050565b60006020820190508181036000830152611f5b81611f1f565b9050919050565b7f45524332303a207472616e7366657220746f20746865207a65726f206164647260008201527f6573730000000000000000000000000000000000000000000000000000000000602082015250565b6000611fbe602383611463565b9150611fc982611f62565b604082019050919050565b60006020820190508181036000830152611fed81611fb1565b9050919050565b7f45524332303a207472616e7366657220616d6f756e742065786365656473206260008201527f616c616e63650000000000000000000000000000000000000000000000000000602082015250565b6000612050602683611463565b915061205b82611ff4565b604082019050919050565b6000602082019050818103600083015261207f81612043565b9050919050565b7f45524332303a206d696e7420746f20746865207a65726f206164647265737300600082015250565b60006120bc601f83611463565b91506120c782612086565b602082019050919050565b600060208201905081810360008301526120eb816120af565b905091905056fea2646970667358221220d85d66850d347adcf9155804c1df5a6244c854319a098cf2a8412c132f081bc964736f6c634300080a0033",
  "linkReferences": {},
  "deployedLinkReferences": {}
}