{
  "_format": "hh-sol-artifact-1",
  "contractName": "Exchange",
  "sourceName": "contracts/Exchange .sol",
  "address": "0xCE1D6AD9e5C957371E77127E9A8902BA63c241e0",
  "abi": [
    {
      "inputs": [
        {
          "internalType": "address",
          "name": "_CryptoDevtoken",
          "type": "address"
        }
      ],
      "stateMutability": "nonpayable",
      "type": "constructor"
    },
    {
      "anonymous": false,
      "inputs": [
        {
          "indexed": true,
          "internalType": "address",
          "name": "owner",
          "type": "address"
        },
        {
          "indexed": true,
          "internalType": "address",
          "name": "spender",
          "type": "address"
        },
        {
          "indexed": false,
          "internalType": "uint256",
          "name": "value",
          "type": "uint256"
        }
      ],
      "name": "Approval",
      "type": "event"
    },
    {
      "anonymous": false,
      "inputs": [
        {
          "indexed": true,
          "internalType": "address",
          "name": "from",
          "type": "address"
        },
        {
          "indexed": true,
          "internalType": "address",
          "name": "to",
          "type": "address"
        },
        {
          "indexed": false,
          "internalType": "uint256",
          "name": "value",
          "type": "uint256"
        }
      ],
      "name": "Transfer",
      "type": "event"
    },
    {
      "inputs": [
        {
          "internalType": "uint256",
          "name": "_amount",
          "type": "uint256"
        }
      ],
      "name": "addLiquidity",
      "outputs": [
        {
          "internalType": "uint256",
          "name": "",
          "type": "uint256"
        }
      ],
      "stateMutability": "payable",
      "type": "function"
    },
    {
      "inputs": [
        {
          "internalType": "address",
          "name": "owner",
          "type": "address"
        },
        {
          "internalType": "address",
          "name": "spender",
          "type": "address"
        }
      ],
      "name": "allowance",
      "outputs": [
        {
          "internalType": "uint256",
          "name": "",
          "type": "uint256"
        }
      ],
      "stateMutability": "view",
      "type": "function"
    },
    {
      "inputs": [
        {
          "internalType": "address",
          "name": "spender",
          "type": "address"
        },
        {
          "internalType": "uint256",
          "name": "amount",
          "type": "uint256"
        }
      ],
      "name": "approve",
      "outputs": [
        {
          "internalType": "bool",
          "name": "",
          "type": "bool"
        }
      ],
      "stateMutability": "nonpayable",
      "type": "function"
    },
    {
      "inputs": [
        {
          "internalType": "address",
          "name": "account",
          "type": "address"
        }
      ],
      "name": "balanceOf",
      "outputs": [
        {
          "internalType": "uint256",
          "name": "",
          "type": "uint256"
        }
      ],
      "stateMutability": "view",
      "type": "function"
    },
    {
      "inputs": [],
      "name": "cryptoDevTokenAddress",
      "outputs": [
        {
          "internalType": "address",
          "name": "",
          "type": "address"
        }
      ],
      "stateMutability": "view",
      "type": "function"
    },
    {
      "inputs": [
        {
          "internalType": "uint256",
          "name": "_tokensSold",
          "type": "uint256"
        },
        {
          "internalType": "uint256",
          "name": "_minEth",
          "type": "uint256"
        }
      ],
      "name": "cryptoDevTokenToEth",
      "outputs": [],
      "stateMutability": "nonpayable",
      "type": "function"
    },
    {
      "inputs": [],
      "name": "decimals",
      "outputs": [
        {
          "internalType": "uint8",
          "name": "",
          "type": "uint8"
        }
      ],
      "stateMutability": "view",
      "type": "function"
    },
    {
      "inputs": [
        {
          "internalType": "address",
          "name": "spender",
          "type": "address"
        },
        {
          "internalType": "uint256",
          "name": "subtractedValue",
          "type": "uint256"
        }
      ],
      "name": "decreaseAllowance",
      "outputs": [
        {
          "internalType": "bool",
          "name": "",
          "type": "bool"
        }
      ],
      "stateMutability": "nonpayable",
      "type": "function"
    },
    {
      "inputs": [
        {
          "internalType": "uint256",
          "name": "_minTokens",
          "type": "uint256"
        }
      ],
      "name": "ethToCryptoDevToken",
      "outputs": [],
      "stateMutability": "payable",
      "type": "function"
    },
    {
      "inputs": [
        {
          "internalType": "uint256",
          "name": "inputAmount",
          "type": "uint256"
        },
        {
          "internalType": "uint256",
          "name": "inputReserve",
          "type": "uint256"
        },
        {
          "internalType": "uint256",
          "name": "outputReserve",
          "type": "uint256"
        }
      ],
      "name": "getAmountOfTokens",
      "outputs": [
        {
          "internalType": "uint256",
          "name": "",
          "type": "uint256"
        }
      ],
      "stateMutability": "pure",
      "type": "function"
    },
    {
      "inputs": [],
      "name": "getReserve",
      "outputs": [
        {
          "internalType": "uint256",
          "name": "",
          "type": "uint256"
        }
      ],
      "stateMutability": "view",
      "type": "function"
    },
    {
      "inputs": [
        {
          "internalType": "address",
          "name": "spender",
          "type": "address"
        },
        {
          "internalType": "uint256",
          "name": "addedValue",
          "type": "uint256"
        }
      ],
      "name": "increaseAllowance",
      "outputs": [
        {
          "internalType": "bool",
          "name": "",
          "type": "bool"
        }
      ],
      "stateMutability": "nonpayable",
      "type": "function"
    },
    {
      "inputs": [],
      "name": "name",
      "outputs": [
        {
          "internalType": "string",
          "name": "",
          "type": "string"
        }
      ],
      "stateMutability": "view",
      "type": "function"
    },
    {
      "inputs": [
        {
          "internalType": "uint256",
          "name": "_amount",
          "type": "uint256"
        }
      ],
      "name": "removeLiquidity",
      "outputs": [
        {
          "internalType": "uint256",
          "name": "",
          "type": "uint256"
        },
        {
          "internalType": "uint256",
          "name": "",
          "type": "uint256"
        }
      ],
      "stateMutability": "nonpayable",
      "type": "function"
    },
    {
      "inputs": [],
      "name": "symbol",
      "outputs": [
        {
          "internalType": "string",
          "name": "",
          "type": "string"
        }
      ],
      "stateMutability": "view",
      "type": "function"
    },
    {
      "inputs": [],
      "name": "totalSupply",
      "outputs": [
        {
          "internalType": "uint256",
          "name": "",
          "type": "uint256"
        }
      ],
      "stateMutability": "view",
      "type": "function"
    },
    {
      "inputs": [
        {
          "internalType": "address",
          "name": "to",
          "type": "address"
        },
        {
          "internalType": "uint256",
          "name": "amount",
          "type": "uint256"
        }
      ],
      "name": "transfer",
      "outputs": [
        {
          "internalType": "bool",
          "name": "",
          "type": "bool"
        }
      ],
      "stateMutability": "nonpayable",
      "type": "function"
    },
    {
      "inputs": [
        {
          "internalType": "address",
          "name": "from",
          "type": "address"
        },
        {
          "internalType": "address",
          "name": "to",
          "type": "address"
        },
        {
          "internalType": "uint256",
          "name": "amount",
          "type": "uint256"
        }
      ],
      "name": "transferFrom",
      "outputs": [
        {
          "internalType": "bool",
          "name": "",
          "type": "bool"
        }
      ],
      "stateMutability": "nonpayable",
      "type": "function"
    }
  ],
  "bytecode": "0x60806040523480156200001157600080fd5b50604051620029dd380380620029dd833981810160405281019062000037919062000259565b6040518060400160405280601281526020017f43727970746f446576204c5020546f6b656e00000000000000000000000000008152506040518060400160405280600481526020017f43444c50000000000000000000000000000000000000000000000000000000008152508160039080519060200190620000bb92919062000192565b508060049080519060200190620000d492919062000192565b505050600073ffffffffffffffffffffffffffffffffffffffff168173ffffffffffffffffffffffffffffffffffffffff1614156200014a576040517f08c379a00000000000000000000000000000000000000000000000000000000081526004016200014190620002ac565b60405180910390fd5b80600560006101000a81548173ffffffffffffffffffffffffffffffffffffffff021916908373ffffffffffffffffffffffffffffffffffffffff16021790555050620003e1565b828054620001a09062000313565b90600052602060002090601f016020900481019282620001c4576000855562000210565b82601f10620001df57805160ff191683800117855562000210565b8280016001018555821562000210579182015b828111156200020f578251825591602001919060010190620001f2565b5b5090506200021f919062000223565b5090565b5b808211156200023e57600081600090555060010162000224565b5090565b6000815190506200025381620003c7565b92915050565b6000602082840312156200026c57600080fd5b60006200027c8482850162000242565b91505092915050565b600062000294602683620002ce565b9150620002a18262000378565b604082019050919050565b60006020820190508181036000830152620002c78162000285565b9050919050565b600082825260208201905092915050565b6000620002ec82620002f3565b9050919050565b600073ffffffffffffffffffffffffffffffffffffffff82169050919050565b600060028204905060018216806200032c57607f821691505b6020821081141562000343576200034262000349565b5b50919050565b7f4e487b7100000000000000000000000000000000000000000000000000000000600052602260045260246000fd5b7f546f6b656e2061646472657373207061737365642069732061206e756c6c206160008201527f6464726573730000000000000000000000000000000000000000000000000000602082015250565b620003d281620002df565b8114620003de57600080fd5b50565b6125ec80620003f16000396000f3fe6080604052600436106101095760003560e01c806370a08231116100955780639e7a2922116100645780639e7a2922146103ad578063a457c2d7146103d8578063a9059cbb14610415578063dd62ed3e14610452578063f0566bb71461048f57610109565b806370a08231146102ca5780637386479e1461030757806395d89b41146103445780639c8f9f231461036f57610109565b8063313ce567116100dc578063313ce567146101de578063395093511461020957806351c6590a1461024657806359bf5d39146102765780636c25a25a146102a157610109565b806306fdde031461010e578063095ea7b31461013957806318160ddd1461017657806323b872dd146101a1575b600080fd5b34801561011a57600080fd5b506101236104ab565b6040516101309190611ced565b60405180910390f35b34801561014557600080fd5b50610160600480360381019061015b91906118b6565b61053d565b60405161016d9190611cd2565b60405180910390f35b34801561018257600080fd5b5061018b610560565b6040516101989190611ecf565b60405180910390f35b3480156101ad57600080fd5b506101c860048036038101906101c39190611867565b61056a565b6040516101d59190611cd2565b60405180910390f35b3480156101ea57600080fd5b506101f3610599565b6040516102009190611f13565b60405180910390f35b34801561021557600080fd5b50610230600480360381019061022b91906118b6565b6105a2565b60405161023d9190611cd2565b60405180910390f35b610260600480360381019061025b919061191b565b6105d9565b60405161026d9190611ecf565b60405180910390f35b34801561028257600080fd5b5061028b6107f6565b6040516102989190611ecf565b60405180910390f35b3480156102ad57600080fd5b506102c860048036038101906102c3919061196d565b6108a8565b005b3480156102d657600080fd5b506102f160048036038101906102ec9190611802565b610a05565b6040516102fe9190611ecf565b60405180910390f35b34801561031357600080fd5b5061032e600480360381019061032991906119a9565b610a4d565b60405161033b9190611ecf565b60405180910390f35b34801561035057600080fd5b50610359610af2565b6040516103669190611ced565b60405180910390f35b34801561037b57600080fd5b506103966004803603810190610391919061191b565b610b84565b6040516103a4929190611eea565b60405180910390f35b3480156103b957600080fd5b506103c2610d28565b6040516103cf9190611c57565b60405180910390f35b3480156103e457600080fd5b506103ff60048036038101906103fa91906118b6565b610d4e565b60405161040c9190611cd2565b60405180910390f35b34801561042157600080fd5b5061043c600480360381019061043791906118b6565b610dc5565b6040516104499190611cd2565b60405180910390f35b34801561045e57600080fd5b506104796004803603810190610474919061182b565b610de8565b6040516104869190611ecf565b60405180910390f35b6104a960048036038101906104a4919061191b565b610e6f565b005b6060600380546104ba906120e7565b80601f01602080910402602001604051908101604052809291908181526020018280546104e6906120e7565b80156105335780601f1061050857610100808354040283529160200191610533565b820191906000526020600020905b81548152906001019060200180831161051657829003601f168201915b5050505050905090565b600080610548610f8d565b9050610555818585610f95565b600191505092915050565b6000600254905090565b600080610575610f8d565b9050610582858285611160565b61058d8585856111ec565b60019150509392505050565b60006012905090565b6000806105ad610f8d565b90506105ce8185856105bf8589610de8565b6105c99190611f4a565b610f95565b600191505092915050565b600080600047905060006105eb6107f6565b90506000600560009054906101000a900473ffffffffffffffffffffffffffffffffffffffff16905060008214156106bf578073ffffffffffffffffffffffffffffffffffffffff166323b872dd3330896040518463ffffffff1660e01b815260040161065a93929190611c72565b602060405180830381600087803b15801561067457600080fd5b505af1158015610688573d6000803e3d6000fd5b505050506040513d601f19601f820116820180604052508101906106ac91906118f2565b508293506106ba338561146d565b6107ea565b600034846106cd919061202b565b905060008184346106de9190611fd1565b6106e89190611fa0565b90508088101561072d576040517f08c379a000000000000000000000000000000000000000000000000000000000815260040161072490611d2f565b60405180910390fd5b8273ffffffffffffffffffffffffffffffffffffffff166323b872dd3330846040518463ffffffff1660e01b815260040161076a93929190611c72565b602060405180830381600087803b15801561078457600080fd5b505af1158015610798573d6000803e3d6000fd5b505050506040513d601f19601f820116820180604052508101906107bc91906118f2565b5081346107c7610560565b6107d19190611fd1565b6107db9190611fa0565b95506107e7338761146d565b50505b83945050505050919050565b6000600560009054906101000a900473ffffffffffffffffffffffffffffffffffffffff1673ffffffffffffffffffffffffffffffffffffffff166370a08231306040518263ffffffff1660e01b81526004016108539190611c57565b60206040518083038186803b15801561086b57600080fd5b505afa15801561087f573d6000803e3d6000fd5b505050506040513d601f19601f820116820180604052508101906108a39190611944565b905090565b60006108b26107f6565b905060006108c1848347610a4d565b905082811015610906576040517f08c379a00000000000000000000000000000000000000000000000000000000081526004016108fd90611e0f565b60405180910390fd5b600560009054906101000a900473ffffffffffffffffffffffffffffffffffffffff1673ffffffffffffffffffffffffffffffffffffffff166323b872dd3330876040518463ffffffff1660e01b815260040161096593929190611c72565b602060405180830381600087803b15801561097f57600080fd5b505af1158015610993573d6000803e3d6000fd5b505050506040513d601f19601f820116820180604052508101906109b791906118f2565b503373ffffffffffffffffffffffffffffffffffffffff166108fc829081150290604051600060405180830381858888f193505050501580156109fe573d6000803e3d6000fd5b5050505050565b60008060008373ffffffffffffffffffffffffffffffffffffffff1673ffffffffffffffffffffffffffffffffffffffff168152602001908152602001600020549050919050565b60008083118015610a5e5750600082115b610a9d576040517f08c379a0000000000000000000000000000000000000000000000000000000008152600401610a9490611e6f565b60405180910390fd5b6000606385610aac9190611fd1565b905060008382610abc9190611fd1565b9050600082606487610ace9190611fd1565b610ad89190611f4a565b90508082610ae69190611fa0565b93505050509392505050565b606060048054610b01906120e7565b80601f0160208091040260200160405190810160405280929190818152602001828054610b2d906120e7565b8015610b7a5780601f10610b4f57610100808354040283529160200191610b7a565b820191906000526020600020905b815481529060010190602001808311610b5d57829003601f168201915b5050505050905090565b60008060008311610bca576040517f08c379a0000000000000000000000000000000000000000000000000000000008152600401610bc190611dcf565b60405180910390fd5b60004790506000610bd9610560565b90506000818684610bea9190611fd1565b610bf49190611fa0565b905060008287610c026107f6565b610c0c9190611fd1565b610c169190611fa0565b9050610c2233886115cd565b3373ffffffffffffffffffffffffffffffffffffffff166108fc839081150290604051600060405180830381858888f19350505050158015610c68573d6000803e3d6000fd5b50600560009054906101000a900473ffffffffffffffffffffffffffffffffffffffff1673ffffffffffffffffffffffffffffffffffffffff1663a9059cbb33836040518363ffffffff1660e01b8152600401610cc6929190611ca9565b602060405180830381600087803b158015610ce057600080fd5b505af1158015610cf4573d6000803e3d6000fd5b505050506040513d601f19601f82011682018060405250810190610d1891906118f2565b5081819550955050505050915091565b600560009054906101000a900473ffffffffffffffffffffffffffffffffffffffff1681565b600080610d59610f8d565b90506000610d678286610de8565b905083811015610dac576040517f08c379a0000000000000000000000000000000000000000000000000000000008152600401610da390611e8f565b60405180910390fd5b610db98286868403610f95565b60019250505092915050565b600080610dd0610f8d565b9050610ddd8185856111ec565b600191505092915050565b6000600160008473ffffffffffffffffffffffffffffffffffffffff1673ffffffffffffffffffffffffffffffffffffffff16815260200190815260200160002060008373ffffffffffffffffffffffffffffffffffffffff1673ffffffffffffffffffffffffffffffffffffffff16815260200190815260200160002054905092915050565b6000610e796107f6565b90506000610e93343447610e8d919061202b565b84610a4d565b905082811015610ed8576040517f08c379a0000000000000000000000000000000000000000000000000000000008152600401610ecf90611e0f565b60405180910390fd5b600560009054906101000a900473ffffffffffffffffffffffffffffffffffffffff1673ffffffffffffffffffffffffffffffffffffffff1663a9059cbb33836040518363ffffffff1660e01b8152600401610f35929190611ca9565b602060405180830381600087803b158015610f4f57600080fd5b505af1158015610f63573d6000803e3d6000fd5b505050506040513d601f19601f82011682018060405250810190610f8791906118f2565b50505050565b600033905090565b600073ffffffffffffffffffffffffffffffffffffffff168373ffffffffffffffffffffffffffffffffffffffff161415611005576040517f08c379a0000000000000000000000000000000000000000000000000000000008152600401610ffc90611e4f565b60405180910390fd5b600073ffffffffffffffffffffffffffffffffffffffff168273ffffffffffffffffffffffffffffffffffffffff161415611075576040517f08c379a000000000000000000000000000000000000000000000000000000000815260040161106c90611d6f565b60405180910390fd5b80600160008573ffffffffffffffffffffffffffffffffffffffff1673ffffffffffffffffffffffffffffffffffffffff16815260200190815260200160002060008473ffffffffffffffffffffffffffffffffffffffff1673ffffffffffffffffffffffffffffffffffffffff168152602001908152602001600020819055508173ffffffffffffffffffffffffffffffffffffffff168373ffffffffffffffffffffffffffffffffffffffff167f8c5be1e5ebec7d5bd14f71427d1e84f3dd0314c0f7b2291e5b200ac8c7c3b925836040516111539190611ecf565b60405180910390a3505050565b600061116c8484610de8565b90507fffffffffffffffffffffffffffffffffffffffffffffffffffffffffffffffff81146111e657818110156111d8576040517f08c379a00000000000000000000000000000000000000000000000000000000081526004016111cf90611d8f565b60405180910390fd5b6111e58484848403610f95565b5b50505050565b600073ffffffffffffffffffffffffffffffffffffffff168373ffffffffffffffffffffffffffffffffffffffff16141561125c576040517f08c379a000000000000000000000000000000000000000000000000000000000815260040161125390611e2f565b60405180910390fd5b600073ffffffffffffffffffffffffffffffffffffffff168273ffffffffffffffffffffffffffffffffffffffff1614156112cc576040517f08c379a00000000000000000000000000000000000000000000000000000000081526004016112c390611d0f565b60405180910390fd5b6112d78383836117a4565b60008060008573ffffffffffffffffffffffffffffffffffffffff1673ffffffffffffffffffffffffffffffffffffffff1681526020019081526020016000205490508181101561135d576040517f08c379a000000000000000000000000000000000000000000000000000000000815260040161135490611daf565b60405180910390fd5b8181036000808673ffffffffffffffffffffffffffffffffffffffff1673ffffffffffffffffffffffffffffffffffffffff16815260200190815260200160002081905550816000808573ffffffffffffffffffffffffffffffffffffffff1673ffffffffffffffffffffffffffffffffffffffff16815260200190815260200160002060008282546113f09190611f4a565b925050819055508273ffffffffffffffffffffffffffffffffffffffff168473ffffffffffffffffffffffffffffffffffffffff167fddf252ad1be2c89b69c2b068fc378daa952ba7f163c4a11628f55a4df523b3ef846040516114549190611ecf565b60405180910390a36114678484846117a9565b50505050565b600073ffffffffffffffffffffffffffffffffffffffff168273ffffffffffffffffffffffffffffffffffffffff1614156114dd576040517f08c379a00000000000000000000000000000000000000000000000000000000081526004016114d490611eaf565b60405180910390fd5b6114e9600083836117a4565b80600260008282546114fb9190611f4a565b92505081905550806000808473ffffffffffffffffffffffffffffffffffffffff1673ffffffffffffffffffffffffffffffffffffffff16815260200190815260200160002060008282546115509190611f4a565b925050819055508173ffffffffffffffffffffffffffffffffffffffff16600073ffffffffffffffffffffffffffffffffffffffff167fddf252ad1be2c89b69c2b068fc378daa952ba7f163c4a11628f55a4df523b3ef836040516115b59190611ecf565b60405180910390a36115c9600083836117a9565b5050565b600073ffffffffffffffffffffffffffffffffffffffff168273ffffffffffffffffffffffffffffffffffffffff16141561163d576040517f08c379a000000000000000000000000000000000000000000000000000000000815260040161163490611def565b60405180910390fd5b611649826000836117a4565b60008060008473ffffffffffffffffffffffffffffffffffffffff1673ffffffffffffffffffffffffffffffffffffffff168152602001908152602001600020549050818110156116cf576040517f08c379a00000000000000000000000000000000000000000000000000000000081526004016116c690611d4f565b60405180910390fd5b8181036000808573ffffffffffffffffffffffffffffffffffffffff1673ffffffffffffffffffffffffffffffffffffffff168152602001908152602001600020819055508160026000828254611726919061202b565b92505081905550600073ffffffffffffffffffffffffffffffffffffffff168373ffffffffffffffffffffffffffffffffffffffff167fddf252ad1be2c89b69c2b068fc378daa952ba7f163c4a11628f55a4df523b3ef8460405161178b9190611ecf565b60405180910390a361179f836000846117a9565b505050565b505050565b505050565b6000813590506117bd81612571565b92915050565b6000815190506117d281612588565b92915050565b6000813590506117e78161259f565b92915050565b6000815190506117fc8161259f565b92915050565b60006020828403121561181457600080fd5b6000611822848285016117ae565b91505092915050565b6000806040838503121561183e57600080fd5b600061184c858286016117ae565b925050602061185d858286016117ae565b9150509250929050565b60008060006060848603121561187c57600080fd5b600061188a868287016117ae565b935050602061189b868287016117ae565b92505060406118ac868287016117d8565b9150509250925092565b600080604083850312156118c957600080fd5b60006118d7858286016117ae565b92505060206118e8858286016117d8565b9150509250929050565b60006020828403121561190457600080fd5b6000611912848285016117c3565b91505092915050565b60006020828403121561192d57600080fd5b600061193b848285016117d8565b91505092915050565b60006020828403121561195657600080fd5b6000611964848285016117ed565b91505092915050565b6000806040838503121561198057600080fd5b600061198e858286016117d8565b925050602061199f858286016117d8565b9150509250929050565b6000806000606084860312156119be57600080fd5b60006119cc868287016117d8565b93505060206119dd868287016117d8565b92505060406119ee868287016117d8565b9150509250925092565b611a018161205f565b82525050565b611a1081612071565b82525050565b6000611a2182611f2e565b611a2b8185611f39565b9350611a3b8185602086016120b4565b611a44816121a6565b840191505092915050565b6000611a5c602383611f39565b9150611a67826121b7565b604082019050919050565b6000611a7f603e83611f39565b9150611a8a82612206565b604082019050919050565b6000611aa2602283611f39565b9150611aad82612255565b604082019050919050565b6000611ac5602283611f39565b9150611ad0826122a4565b604082019050919050565b6000611ae8601d83611f39565b9150611af3826122f3565b602082019050919050565b6000611b0b602683611f39565b9150611b168261231c565b604082019050919050565b6000611b2e602383611f39565b9150611b398261236b565b604082019050919050565b6000611b51602183611f39565b9150611b5c826123ba565b604082019050919050565b6000611b74601a83611f39565b9150611b7f82612409565b602082019050919050565b6000611b97602583611f39565b9150611ba282612432565b604082019050919050565b6000611bba602483611f39565b9150611bc582612481565b604082019050919050565b6000611bdd601083611f39565b9150611be8826124d0565b602082019050919050565b6000611c00602583611f39565b9150611c0b826124f9565b604082019050919050565b6000611c23601f83611f39565b9150611c2e82612548565b602082019050919050565b611c428161209d565b82525050565b611c51816120a7565b82525050565b6000602082019050611c6c60008301846119f8565b92915050565b6000606082019050611c8760008301866119f8565b611c9460208301856119f8565b611ca16040830184611c39565b949350505050565b6000604082019050611cbe60008301856119f8565b611ccb6020830184611c39565b9392505050565b6000602082019050611ce76000830184611a07565b92915050565b60006020820190508181036000830152611d078184611a16565b905092915050565b60006020820190508181036000830152611d2881611a4f565b9050919050565b60006020820190508181036000830152611d4881611a72565b9050919050565b60006020820190508181036000830152611d6881611a95565b9050919050565b60006020820190508181036000830152611d8881611ab8565b9050919050565b60006020820190508181036000830152611da881611adb565b9050919050565b60006020820190508181036000830152611dc881611afe565b9050919050565b60006020820190508181036000830152611de881611b21565b9050919050565b60006020820190508181036000830152611e0881611b44565b9050919050565b60006020820190508181036000830152611e2881611b67565b9050919050565b60006020820190508181036000830152611e4881611b8a565b9050919050565b60006020820190508181036000830152611e6881611bad565b9050919050565b60006020820190508181036000830152611e8881611bd0565b9050919050565b60006020820190508181036000830152611ea881611bf3565b9050919050565b60006020820190508181036000830152611ec881611c16565b9050919050565b6000602082019050611ee46000830184611c39565b92915050565b6000604082019050611eff6000830185611c39565b611f0c6020830184611c39565b9392505050565b6000602082019050611f286000830184611c48565b92915050565b600081519050919050565b600082825260208201905092915050565b6000611f558261209d565b9150611f608361209d565b9250827fffffffffffffffffffffffffffffffffffffffffffffffffffffffffffffffff03821115611f9557611f94612119565b5b828201905092915050565b6000611fab8261209d565b9150611fb68361209d565b925082611fc657611fc5612148565b5b828204905092915050565b6000611fdc8261209d565b9150611fe78361209d565b9250817fffffffffffffffffffffffffffffffffffffffffffffffffffffffffffffffff04831182151516156120205761201f612119565b5b828202905092915050565b60006120368261209d565b91506120418361209d565b92508282101561205457612053612119565b5b828203905092915050565b600061206a8261207d565b9050919050565b60008115159050919050565b600073ffffffffffffffffffffffffffffffffffffffff82169050919050565b6000819050919050565b600060ff82169050919050565b60005b838110156120d25780820151818401526020810190506120b7565b838111156120e1576000848401525b50505050565b600060028204905060018216806120ff57607f821691505b6020821081141561211357612112612177565b5b50919050565b7f4e487b7100000000000000000000000000000000000000000000000000000000600052601160045260246000fd5b7f4e487b7100000000000000000000000000000000000000000000000000000000600052601260045260246000fd5b7f4e487b7100000000000000000000000000000000000000000000000000000000600052602260045260246000fd5b6000601f19601f8301169050919050565b7f45524332303a207472616e7366657220746f20746865207a65726f206164647260008201527f6573730000000000000000000000000000000000000000000000000000000000602082015250565b7f416d6f756e74206f6620746f6b656e732073656e74206973206c65737320746860008201527f616e20746865206d696e696d756d20746f6b656e732072657175697265640000602082015250565b7f45524332303a206275726e20616d6f756e7420657863656564732062616c616e60008201527f6365000000000000000000000000000000000000000000000000000000000000602082015250565b7f45524332303a20617070726f766520746f20746865207a65726f20616464726560008201527f7373000000000000000000000000000000000000000000000000000000000000602082015250565b7f45524332303a20696e73756666696369656e7420616c6c6f77616e6365000000600082015250565b7f45524332303a207472616e7366657220616d6f756e742065786365656473206260008201527f616c616e63650000000000000000000000000000000000000000000000000000602082015250565b7f5f616d6f756e742073686f756c642062652067726561746572207468616e207a60008201527f65726f0000000000000000000000000000000000000000000000000000000000602082015250565b7f45524332303a206275726e2066726f6d20746865207a65726f2061646472657360008201527f7300000000000000000000000000000000000000000000000000000000000000602082015250565b7f696e73756666696369656e74206f757470757420616d6f756e74000000000000600082015250565b7f45524332303a207472616e736665722066726f6d20746865207a65726f20616460008201527f6472657373000000000000000000000000000000000000000000000000000000602082015250565b7f45524332303a20617070726f76652066726f6d20746865207a65726f2061646460008201527f7265737300000000000000000000000000000000000000000000000000000000602082015250565b7f696e76616c696420726573657276657300000000000000000000000000000000600082015250565b7f45524332303a2064656372656173656420616c6c6f77616e63652062656c6f7760008201527f207a65726f000000000000000000000000000000000000000000000000000000602082015250565b7f45524332303a206d696e7420746f20746865207a65726f206164647265737300600082015250565b61257a8161205f565b811461258557600080fd5b50565b61259181612071565b811461259c57600080fd5b50565b6125a88161209d565b81146125b357600080fd5b5056fea26469706673582212201b26fe2b2e380bcdd90e21bd9995b6f225a3cd6f30c1ad54fab1fe39287801c264736f6c63430008040033",
  "linkReferences": {},
  "deployedLinkReferences": {}
}